{
  "contractName": "Evoting",
  "abi": [
    {
      "inputs": [],
      "payable": false,
      "stateMutability": "nonpayable",
      "type": "constructor"
    },
    {
      "anonymous": false,
      "inputs": [
        {
          "indexed": true,
          "internalType": "uint256",
          "name": "_candidateId",
          "type": "uint256"
        }
      ],
      "name": "votedEvent",
      "type": "event"
    },
    {
      "constant": true,
      "inputs": [
        {
          "internalType": "uint256",
          "name": "",
          "type": "uint256"
        }
      ],
      "name": "candidates",
      "outputs": [
        {
          "internalType": "uint256",
          "name": "id",
          "type": "uint256"
        },
        {
          "internalType": "string",
          "name": "name",
          "type": "string"
        },
        {
          "internalType": "uint256",
          "name": "numVotes",
          "type": "uint256"
        }
      ],
      "payable": false,
      "stateMutability": "view",
      "type": "function"
    },
    {
      "constant": true,
      "inputs": [],
      "name": "numCandidates",
      "outputs": [
        {
          "internalType": "uint256",
          "name": "",
          "type": "uint256"
        }
      ],
      "payable": false,
      "stateMutability": "view",
      "type": "function"
    },
    {
      "constant": true,
      "inputs": [
        {
          "internalType": "address",
          "name": "",
          "type": "address"
        }
      ],
      "name": "voters",
      "outputs": [
        {
          "internalType": "bool",
          "name": "",
          "type": "bool"
        }
      ],
      "payable": false,
      "stateMutability": "view",
      "type": "function"
    },
    {
      "constant": false,
      "inputs": [
        {
          "internalType": "uint256",
          "name": "_candidateId",
          "type": "uint256"
        }
      ],
      "name": "vote",
      "outputs": [],
      "payable": false,
      "stateMutability": "nonpayable",
      "type": "function"
    }
  ],
  "bytecode": "0x608060405234801561001057600080fd5b506100556040518060400160405280600581526020017f416c69636500000000000000000000000000000000000000000000000000000081525061009e60201b60201c565b6100996040518060400160405280600381526020017f426f62000000000000000000000000000000000000000000000000000000000081525061009e60201b60201c565b6101bc565b600160008154600101919050819055506040518060600160405280600154815260200182815260200160008152506000806001548152602001908152602001600020600082015181600001556020820151816001019080519060200190610106929190610117565b506040820151816002015590505050565b828054600181600116156101000203166002900490600052602060002090601f016020900481019282601f1061015857805160ff1916838001178555610186565b82800160010185558215610186579182015b8281111561018557825182559160200191906001019061016a565b5b5090506101939190610197565b5090565b6101b991905b808211156101b557600081600090555060010161019d565b5090565b90565b6104ba806101cb6000396000f3fe608060405234801561001057600080fd5b506004361061004c5760003560e01c80630121b93f146100515780633477ee2e1461007f5780635216509a14610134578063a3ec138d14610152575b600080fd5b61007d6004803603602081101561006757600080fd5b81019080803590602001909291905050506101ae565b005b6100ab6004803603602081101561009557600080fd5b810190808035906020019092919050505061039d565b6040518084815260200180602001838152602001828103825284818151815260200191508051906020019080838360005b838110156100f75780820151818401526020810190506100dc565b50505050905090810190601f1680156101245780820380516001836020036101000a031916815260200191505b5094505050505060405180910390f35b61013c61045f565b6040518082815260200191505060405180910390f35b6101946004803603602081101561016857600080fd5b81019080803573ffffffffffffffffffffffffffffffffffffffff169060200190929190505050610465565b604051808215151515815260200191505060405180910390f35b600260003373ffffffffffffffffffffffffffffffffffffffff1673ffffffffffffffffffffffffffffffffffffffff16815260200190815260200160002060009054906101000a900460ff161561026e576040517f08c379a000000000000000000000000000000000000000000000000000000000815260040180806020018281038252600d8152602001807f616c726561647920766f7465640000000000000000000000000000000000000081525060200191505060405180910390fd5b60008111801561028057506001548111155b6102f2576040517f08c379a00000000000000000000000000000000000000000000000000000000081526004018080602001828103825260148152602001807f696e76616c69642063616e64696461746520696400000000000000000000000081525060200191505060405180910390fd5b6001600260003373ffffffffffffffffffffffffffffffffffffffff1673ffffffffffffffffffffffffffffffffffffffff16815260200190815260200160002060006101000a81548160ff0219169083151502179055506000808281526020019081526020016000206002016000815460010191905081905550807ffff3c900d938d21d0990d786e819f29b8d05c1ef587b462b939609625b684b1660405160405180910390a250565b6000602052806000526040600020600091509050806000015490806001018054600181600116156101000203166002900480601f01602080910402602001604051908101604052809291908181526020018280546001816001161561010002031660029004801561044f5780601f106104245761010080835404028352916020019161044f565b820191906000526020600020905b81548152906001019060200180831161043257829003601f168201915b5050505050908060020154905083565b60015481565b60026020528060005260406000206000915054906101000a900460ff168156fea265627a7a7231582091ca69e832753f6b0f284d1dd0fff9480db6a22899915f4c0fbf286a427bd0ca64736f6c63430005100032",
  "source": "pragma solidity ^0.5.0;\r\n\r\ncontract Evoting {\r\n    // Model a Candidate\r\n    struct Candidate {\r\n        uint id;  // starts from 1\r\n        string name;\r\n        uint numVotes;\r\n    }\r\n\r\n    // All Candidates by id\r\n    mapping(uint => Candidate) public candidates;\r\n\r\n    // Number of Candidates\r\n    uint public numCandidates;\r\n\r\n    // Store the addresses that have already voted\r\n    mapping(address => bool) public voters;\r\n\r\n    // To trigger this event whenever a vote is cast\r\n    event votedEvent (\r\n        uint indexed _candidateId\r\n    );\r\n\r\n    // Add a candidate by name into the mapping, auto-increment id\r\n    function addCandidate (string memory _name) private {\r\n        ++numCandidates;\r\n        candidates[numCandidates] = Candidate(numCandidates, _name, 0);\r\n    }\r\n\r\n    // Constructor\r\n    constructor() public {\r\n        addCandidate(\"Alice\");  // id is 1\r\n        addCandidate(\"Bob\");    // id is 2\r\n    }\r\n\r\n    // The caller address casts a vote for a candidate\r\n    function vote (uint _candidateId) public {\r\n        // require that they haven't voted before\r\n        require(!voters[msg.sender], \"already voted\");\r\n\r\n        // require a valid candidate\r\n        require(_candidateId > 0 && _candidateId <= numCandidates, \"invalid candidate id\");\r\n\r\n        // record that voter has voted\r\n        voters[msg.sender] = true;  // msg.sender is the caller address\r\n\r\n        // update candidate vote Count\r\n        ++candidates[_candidateId].numVotes;\r\n\r\n        // trigger voted event\r\n        emit votedEvent(_candidateId);\r\n    }\r\n}",
  "sourcePath": "C:\\Users\\USER\\source\\repos\\evoting\\contracts\\EVoting.sol",
  "compiler": {
    "name": "solc",
    "version": "0.5.16+commit.9c3226ce.Emscripten.clang"
  },
  "schemaVersion": "3.4.15",
  "updatedAt": "2024-03-25T06:55:49.416Z",
  "networkType": "ethereum",
  "devdoc": {
    "methods": {}
  },
  "userdoc": {
    "methods": {}
  }
}